:0801530002080000020A00018D
:08014A007F247ED9DEFEDFFCFC
:01015200228A
:1000EC00EF2509F509EE3508F508C36480948050B6
:1000FC00087508007509078012D3E5099407E5080F
:10010C00648094804005E4F508F509AF09AE0BEE68
:0D011C00A807088002C333D8FCF4F5A02228
:10012900EF4E6010E50B25E0FFE50A33F50AEF44D1
:1001390001F50B22E50AA2E713F50AE50B13F50B06
:010149002293
:10008F0075A0FFE4800E20B10F12014A30B1FD12AE
:10009F00014A74FFFFFE802720B00F12014A30B0D3
:1000AF00FD12014A7F017E00801520B21712014A0E
:1000BF0030B2FD12014A7F017E00120129E4FF12C6
:1000CF0000EC80C220B3BF12014A30B3FD12014AC7
:0D00DF00E4FFFE120129E4FF1200EC80A9ED
:03000000020003F8
:0C000300787FE4F6D8FD75810B02004AFE
:10000F0002008FE493A3F8E493A34003F68001F278
:10001F0008DFF48029E493A3F85407240CC8C333F2
:10002F00C4540F4420C8834004F456800146F6DFC1
:10003F00E4800B0102040810204080900153E47EFD
:10004F00019360BCA3FF543F30E509541FFEE493B6
:10005F00A360010ECF54C025E060A840B8E493A37D
:10006F00FAE493A3F8E493A3C8C582C8CAC583CAA8
:10007F00F0A3C8C582C8CAC583CADFE9DEE780BE60
:01015B0000A3
:00000001FF
