:1000E500EF1F70011E144E600A7D027CC7DCFEDD29
:0300F500FC80ED9F
:0100F80022E5
:100003007508017509FF750A00750B07E4F50CF512
:100013000DAB0BAA0A90FFFFAF037401A80708807A
:1000230002C333D8FC6509F5A07FC87E001200E542
:10003300C3E583648094805017EB24FFFFEA34FF09
:10004300FEC3EF950DE50C6480F8EE6480985016BE
:10005300EB2401FFE43AFED3EF950DE50C6480F841
:10006300EE648098500AE5822BFBE5833AFA80A878
:10007300AF0374017E00A807088005C333CE33CED7
:10008300D8F96209EE6208E4B50923E508B4011E54
:100093007508017509FF750A00750B07E4F50CF582
:1000A3000DAA0AAB0B74FFF583F58202001BAA0AA3
:1000B300AB0B850C0A850D0B8A0C8B0DC3E5836492
:1000C3008094805005900001800674FFF583F582CB
:1000D300E582250BF50BE583350AF50AFAAB0B022E
:0200E300001B00
:030000000200F902
:0C00F900787FE4F6D8FD75810D0200034D
:00000001FF
